:1044000055425C0135D0085A8245102431400044A1
:104410003F4000000F930824924210245C012F8338
:104420009F4F38460024F8233F4010000F93072485
:10443000924210245C011F83CF430024F923B01261
:10444000A0453F4000000F930324B0120000FD3F41
:10445000FF3F32D0F000FD3F30403646F2D0300012
:104460004A02F2D00C004402B2F0FEFF6C01B2D05E
:104470000C006C012D42B2F0F4FF6E01B2F0FDFFB2
:1044800002013E4040003F40C9931F83FE231E832C
:10449000FC2303433D530324A2B30201EC23B2F0F7
:1044A0003FFF6C013041B2401D5A5C0192D30001C4
:1044B0003041F240A5FF2101B2F0F8FF2601C243CE
:1044C0002001B2F0F8FF2C011F4226013FF0F8FF57
:1044D0001FD3824F260192B32C01FD27A2B32C01DA
:1044E000FD275F4220017FF0FCFF5FD3C24F200118
:1044F000A2B22C01FD27B2F0F8FF2C011F422601C9
:104500003FF0F8FF2FD3824F260192B32C01FD27F5
:10451000A2B32C01FD275F4220017FF0FCFF6FD387
:10452000C24F2001A2B22C01FD27B2F0F8FF2C01EE
:104530001F4226013FF0F8FF3FD00300824F2601C3
:1045400092B32C01FD27A2B32C01FD27F2D003006A
:104550002001A2B22C01FD27B2F0FFBB2401B2F072
:10456000FFBB2601C243210182436001B2406000CB
:104570006201B24076116401B24020006601B2408F
:1045800033006801B2F0F8FF6E01F240A5FF21018F
:10459000B2F0FEFF3001C2432101B0125C44304151
:1045A000B240805A5C01B012B244B012A644B2408C
:1045B00028960009B2F0FFE70809B240009600090A
:1045C00032D230414F151E4204241F4206241B42A2
:1045D00002245D4200244D9304241C420C240D430C
:1045E000023C0C430D430E5C0F6D5D4200244D9365
:1045F00003241D420E24023C3D4047010D5B3D90CB
:10460000E80304283D5018FC1E530F63824D02241A
:10461000824E0424824F06241E4208241F420A248C
:104620001E530F63824E0824824F0A24B1C0D0006B
:084630000A004B1700130013F0
:10FF8000FFFFFFFFFFFFFFFFFFFFFFFFFFFFFFFF81
:10FF9000FFFFFFFFFFFFFFFFFFFFFFFFFFFFFFFF71
:10FFA000FFFFFFFFFFFFFFFFFFFFFFFFFFFFFFFF61
:10FFB000FFFFFFFFFFFFFFFFFFFFFFFFFFFFFFFF51
:10FFC0005844584458445844584458445844584451
:10FFD0005844584458445844584458445844584441
:10FFE0005844584458445844584458445844584431
:10FFF0005844C4455844584458445844584400440C
:0400000300004400B5
:00000001FF
